S01000004D535F74696D65722E73726563F4
S11300000C945C000C945F030C9486030C947900AC
S11300100C9479000C9479000C9479000C94790078
S11300200C9479000C94CA050C9479000C94790012
S11300300C9479000C9479000C9479000C94790058
S11300400C94AD030C9479000C9479000C94790011
S11300500C9479000C9479000C9479000C94790038
S11300600C9479000C94790000000008000201004F
S1130070000304070000000000000000010204085F
S113008010204080010204081020010204081020FE
S1130090040404040404040402020202020203032A
S11300A00303030300000000250028002B000000C8
S11300B00000240027002A0011241FBECFEFD8E03F
S11300C0DEBFCDBF11E0A0E0B1E0EEE3FCE002C092
S11300D005900D92AE31B107D9F721E0AEE1B1E060
S11300E001C01D92AB34B207E1F70E942F030C94B8
S11300F01D060C94000020911E0130911F0181E027
S113010090E0232B11F080E090E090931F01809306
S11301101E01089580911E0190911F01892B09F001
S113012072C02091310130913201C9016AE070E05E
S11301300E94F50590932701809326012F5F3F4F7E
S1130140309332012093310141E0121613060CF072
S113015040E040932A01892B09F055C0121613067A
S11301600CF051C020912F0130913001C9016AE097
S113017070E00E94F50590932501809324012F5F80
S11301803F4F3093300120932F0141E012161306A4
S11301900CF040E040932901892BA9F512161306AF
S11301A094F520912D0130912E01C9016AE070E08F
S11301B00E94F50590932301809322012F5F3F4F06
S11301C030932E0120932D0141E0121613060CF0FA
S11301D040E040932801892BB1F4121613069CF4D5
S11301E020912B0130912C01C9016AE070E00E943A
S11301F0F50590932101809320012F5F3F4F3093A9
S11302002C0120932B01089561E0809118010E9434
S1130210BC0461E0809116010E94BC0461E08091FD
S113022014010E94BC0461E0809112010E94BC048C
S113023061E0809110010E94BC0461E080910E0194
S11302400E94BC0461E080910C010E94BC0461E046
S1130250809133010E94BC0461E080910A010E94F4
S1130260BC0461E0809108010E94BC0461E08091BB
S113027006010E94BC0461E0809104010E94BC0458
S113028062E0809100010E94BC0480910001909181
S113029001018230910521F0039721F08FEF03C013
S11302A080E001C081E043E050E06BE770E00E9431
S11302B03F034AE850E06AE070E080E090E00E948A
S11302C027050C947505CF93DF93EC01613071051C
S11302D039F460E080910A010E94F80461E009C0E9
S11302E06230710561F461E080910A010E94F804B2
S11302F060E0809108010E94F80461E00EC0633060
S1130300710589F461E080910A010E94F80461E0BA
S1130310809108010E94F80460E0809106010E9427
S1130320F80461E013C064307105A1F461E08091C8
S11303300A010E94F80461E0809108010E94F80417
S113034061E0809106010E94F80460E0809104015C
S11303500E94F8042097D9F461E0809118010E946A
S1130360F80461E0809116010E94F80461E0809134
S113037014010E94F80461E0809112010E94F804C3
S113038061E0809110010E94F80461E01DC0C13059
S1130390D10501F560E0809118010E94F80461E044
S11303A0809116010E94F80461E0809114010E947A
S11303B0F80460E0809112010E94F80460E08091EA
S11303C010010E94F80460E080910E010E94F8047C
S11303D060E0F1C0C230D105D9F461E08091180128
S11303E00E94F80461E0809116010E94F80460E024
S11303F0809114010E94F80461E080910C010E9434
S1130400F80461E0809112010E94F80461E01DC0CB
S1130410C330D10511F561E0809118010E94F80400
S113042061E0809116010E94F80461E080910C0162
S11304300E94F80461E0809112010E94F80461E0D6
S1130440809114010E94F80460E0809110010E94E0
S1130450F80460E080910E01B0C0C430D10511F5FC
S113046060E0809118010E94F80461E080910E011F
S11304700E94F80461E0809116010E94F80461E092
S113048080910C010E94F80461E0809114010E94A3
S1130490F80460E0809110010E94F80460E080910B
S11304A012018BC0C530D10511F561E080911801AE
S11304B00E94F80460E0809116010E94F80461E053
S11304C080910E010E94F80461E080910C010E9469
S11304D0F80461E0809112010E94F80461E08091C7
S11304E014010E94F80460E08091100166C0C630D7
S11304F0D10511F561E0809118010E94F80461E0D2
S113050080910E010E94F80461E080910C010E9428
S1130510F80461E0809112010E94F80461E0809186
S113052014010E94F80461E0809110010E94F80413
S113053060E08091160141C0C730D10511F461E03B
S11305402ACFC830D105B1F461E0809118010E942E
S1130550F80461E0809116010E94F80461E0809142
S113056014010E94F80461E0809112010E94F804D1
S113057061E017C0299719F561E0809118010E9484
S1130580F80461E0809116010E94F80461E0809112
S113059014010E94F80461E0809112010E94F804A1
S11305A060E0809110010E94F80461E080910E01E6
S11305B00E94F80461E080910C010E94F80461E05B
S11305C080913301DF91CF910C94F80464E070E0E2
S11305D080912601909127010E946301609102019C
S11305E070910301072E000C880B990B0E941C04C8
S11305F063E070E080912401909125010E946301E1
S11306006091020170910301072E000C880B990B75
S11306100E941C0462E070E0809122019091230109
S11306200E9463016091020170910301072E000C86
S1130630880B990B0E941C0461E070E080912001FA
S1130640909121010E946301609102017091030164
S1130650072E000C880B990B0C941C0408950E941F
S113066058040E942E030E940401C0E0D0E00E94BE
S1130670E6022097E1F30E940000F9CF089582304A
S1130680E8F4E82FF0E0EE0FFF1FE65EFE4F718303
S11306906083813041F0809169008C7F482B4093C6
S11306A06900E89A089580916900837F440F551F7B
S11306B0440F551F482B40936900E99A08951F92EF
S11306C00F920FB60F9211242F933F934F935F9382
S11306D06F937F938F939F93AF93BF93EF93FF9306
S11306E0E0911A01F0911B010995FF91EF91BF91DF
S11306F0AF919F918F917F916F915F914F913F91B6
S11307002F910F900FBE0F901F9018951F920F926C
S11307100FB60F9211242F933F934F935F936F93D0
S11307207F938F939F93AF93BF93EF93FF93E09146
S11307301C01F0911D010995FF91EF91BF91AF91BB
S11307409F918F917F916F915F914F913F912F91E5
S11307500F900FBE0F901F9018951F920F920FB617
S11307600F9211242F933F938F939F93AF93BF9333
S11307708091360190913701A0913801B0913901EF
S11307803091350123E0230F2D3720F40196A11D6C
S1130790B11D05C026E8230F0296A11DB11D2093AB
S11307A035018093360190933701A0933801B093BB
S11307B0390180913A0190913B01A0913C01B091A3
S11307C03D010196A11DB11D80933A0190933B0117
S11307D0A0933C01B0933D01BF91AF919F918F9144
S11307E03F912F910F900FBE0F901F9018953FB718
S11307F0F89480913A0190913B01A0913C01B09111
S11308003D0126B5A89B05C02F3F19F00196A11DF7
S1130810B11D3FBFBA2FA92F982F8827820F911D92
S1130820A11DB11DBC01CD0142E0660F771F881FD9
S1130830991F4A95D1F708958F929F92AF92BF92D4
S1130840CF92DF92EF92FF926B017C010E94F7033B
S11308504B015C01C114D104E104F10401F10E94D3
S1130860F4050E94F703DC01CB0188199909AA0950
S1130870BB09883E9340A105B10560F321E0C21A8B
S1130880D108E108F10888EE880E83E0981EA11CC7
S1130890B11CC114D104E104F10419F7DBCFFF90BA
S11308A0EF90DF90CF90BF90AF909F908F9008957E
S11308B0789484B5826084BD84B5816084BD85B537
S11308C0826085BD85B5816085BDEEE6F0E08081FE
S11308D081608083E1E8F0E010828081826080831F
S11308E0808181608083E0E8F0E0808181608083A2
S11308F0E1EBF0E0808184608083E0EBF0E08081D4
S113090081608083EAE7F0E0808184608083808175
S1130910826080838081816080838081806880831D
S11309201092C1000895833081F028F4813099F049
S11309308230A1F008958730A9F08830B9F084306E
S1130940D1F4809180008F7D03C0809180008F77E7
S113095080938000089584B58F7702C084B58F7D1D
S113096084BD08958091B0008F7703C08091B0005A
S11309708F7D8093B0000895CF93DF9390E0FC01C6
S1130980E458FF4F2491FC01E057FF4F84918823E2
S113099061F190E0880F991FFC01E255FF4FC5916A
S11309A0D491FC01EC55FF4FA591B491611109C09C
S11309B09FB7F8948881209582238883EC912E2315
S11309C00BC0623061F49FB7F8948881322F309560
S11309D083238883EC912E2B2C939FBF06C08FB763
S11309E0F894E8812E2B28838FBFDF91CF9108954F
S11309F01F93CF93DF93282F30E0F901E859FF4F7D
S1130A008491F901E458FF4FD491F901E057FF4F65
S1130A10C491CC23C1F0162F81110E949304EC2FB2
S1130A20F0E0EE0FFF1FEC55FF4FA591B4919FB777
S1130A30F894111104C08C91D095D82302C0EC9184
S1130A40DE2BDC939FBFDF91CF911F9108950F930D
S1130A501F938B019C01809170008E7F80937000A6
S1130A608091B0008C7F8093B0008091B100877F2B
S1130A708093B1008091B6008F7D8093B600809101
S1130A8070008D7F809370008091B10084608093AA
S1130A90B1008091B1008C7F8093B10086E090E03A
S1130AA090933F0180933E01011511052105310505
S1130AB069F481E090E0A0E0B0E080934701909376
S1130AC04801A0934901B0934A0108C0009347012B
S1130AD0109348012093490130934A0150934601F1
S1130AE0409345011F910F91089510924101109276
S1130AF042011092430110924401109240018091EE
S1130B003E0190913F018093B200E0E7F0E08081E4
S1130B108160808308958091410190914201A09168
S1130B204301B09144010196A11DB11D809341017F
S1130B3090934201A0934301B09344014091410139
S1130B4050914201609143017091440180914701A9
S1130B5090914801A0914901B0914A014817590761
S1130B606A077B07B0F080914001811112C081E0D7
S1130B70809340011092410110924201109243016E
S1130B8010924401E0914501F091460109951092BB
S1130B90400108951F920F920FB60F9211242F93C4
S1130BA03F934F935F936F937F938F939F93AF93F1
S1130BB0BF93EF93FF9380913E0190913F01809307
S1130BC0B2000E948B05FF91EF91BF91AF919F916D
S1130BD08F917F916F915F914F913F912F910F90E2
S1130BE00FBE0F901F901895089597FB072E16F4CB
S1130BF0009407D077FD09D00E94090607FC05D0B0
S1130C003EF4909581959F4F0895709561957F4F1F
S1130C100895AA1BBB1B51E107C0AA1FBB1FA6173F
S1130C20B70710F0A61BB70B881F991F5A95A9F791
S1110C3080959095BC01CD010895F894FFCFF6
S1130C3E020005000D000C000B000A000300040066
S1110C4E050006000700080009003E033E03EF
S9030000FC
