S0130000536572766F5F73776565702E737265637F
S11300000C9434000C943E000C943E000C943E007E
S11300100C943E000C943E000C943E000C943E0064
S11300200C943E000C943E000C943E000C943E0054
S11300300C943E000C943E000C943E000C943E0044
S11300400C943E000C943E000C943E000C943E0034
S11300500C943E000C943E000C943E000C943E0024
S11300600C943E000C943E0011241FBECFEFD8E048
S1130070DEBFCDBF0E9440000C946E000C940000C3
S1130080219AE0E8F0E0808182688083E1E8F0E092
S113009080818A6180838FE39CE9909387008093B9
S11300A08600E8E8F0E02FEB32E18FEA94E0318358
S11300B020834FE352E46FE0415050406040E1F749
S11300C000C00000918380834FE352E46FE041500D
S11300D050406040E1F700C00000E9CFF894FFCF42
S9030000FC
