S01000004D535F74696D65722E73726563F4
S11300000C945C000C9492030C94B9030C94790046
S11300100C9479000C9479000C9479000C94790078
S11300200C9479000C9479000C9479000C948A0057
S11300300C9479000C9479000C9479000C94790058
S11300400C94E0030C9479000C9479000C947900DE
S11300500C9479000C9479000C9479000C94790038
S11300600C9479000C94790000000008000201004F
S1130070000304070000000000000000010204085F
S113008010204080010204081020010204081020FE
S1130090040404040404040402020202020203032A
S11300A00303030300000000250028002B000000C8
S11300B00000240027002A0011241FBECFEFD8E03F
S11300C0DEBFCDBF11E0A0E0B1E0EAE0FBE002C09A
S11300D005900D92AE31B107D9F721E0AEE1B1E060
S11300E001C01D92AE33B207E1F70E9462030C9483
S11300F083050C940000209133013091340181E098
S113010090E0232B11F080E090E0909334018093F1
S1130110330108951F920F920FB60F9211242F935B
S11301203F934F935F936F937F938F939F93AF937B
S1130130BF938091330190913401892B09F072C0EF
S113014020912F0130913001C9016AE070E00E94D2
S11301505B0590932501809324012F5F3F4F3093DB
S1130160300120932F0141E0121613060CF040E0F9
S113017040932801892B09F055C0121613060CF080
S113018051C020912D0130912E01C9016AE070E027
S11301900E945B0590932301809322012F5F3F4FC0
S11301A030932E0120932D0141E0121613060CF01A
S11301B040E040932701892BA9F51216130694F504
S11301C020912B0130912C01C9016AE070E00E945A
S11301D05B0590932101809320012F5F3F4F309363
S11301E02C0120932B0141E0121613060CF040E081
S11301F040932601892BB1F4121613069CF4209126
S1130200290130912A01C9016AE070E00E945B056E
S113021090931F0180931E012F5F3F4F30932A015B
S113022020932901BF91AF919F918F917F916F91FD
S11302305F914F913F912F910F900FBE0F901F90A0
S1130240189561E0809116010E94EF0461E08091AD
S113025014010E94EF0461E0809112010E94EF04F6
S113026061E0809110010E94EF0461E080910E0131
S11302700E94EF0461E080910C010E94EF0461E0B0
S113028080910A010E94EF0461E0809131010E9493
S1130290EF0461E0809108010E94EF0461E0809125
S11302A006010E94EF0461E0809104010E94EF04C2
S11302B061E0809102010E94EF0462E080911801E4
S11302C00E94EF04809118019091190182309105E8
S11302D021F0039721F08FEF03C080E001C081E09B
S11302E043E050E06BE770E00E947203F8941092D0
S11302F080001092810010928500109284008FE19A
S11303009EE49093890080938800809181008860A6
S1130310809381008091810082608093810080912C
S11303206F00826080936F0078940895CF93DF9379
S1130330EC016130710539F460E0809108010E949C
S11303402B0561E009C06230710561F461E08091C0
S113035008010E942B0560E0809106010E942B0594
S113036061E00EC06330710589F461E08091080199
S11303700E942B0561E0809106010E942B0560E03C
S1130380809104010E942B0561E013C06430710563
S1130390A1F461E0809108010E942B0561E0809145
S11303A006010E942B0561E0809104010E942B0547
S11303B060E0809102010E942B052097D9F461E04E
S11303C0809116010E942B0561E0809114010E9426
S11303D02B0561E0809112010E942B0561E0809160
S11303E010010E942B0561E080910E010E942B05F3
S11303F061E01DC0C130D10501F560E080911601B6
S11304000E942B0561E0809114010E942B0561E09C
S1130410809112010E942B0560E0809110010E94DE
S11304202B0560E080910E010E942B0560E0809115
S11304300C010E942B0560E0F1C0C230D105D9F453
S113044061E0809116010E942B0561E08091140106
S11304500E942B0560E0809112010E942B0561E04F
S113046080910A010E942B0561E0809110010E9495
S11304702B0561E01DC0C330D10511F561E0809109
S113048016010E942B0561E0809114010E942B0546
S113049061E080910A010E942B0561E080911001C6
S11304A00E942B0561E0809112010E942B0560E0FF
S11304B080910E010E942B0560E080910C01B0C078
S11304C0C430D10511F560E0809116010E942B051E
S11304D061E080910C010E942B0561E08091140180
S11304E00E942B0561E080910A010E942B0561E0C6
S11304F0809112010E942B0560E080910E010E9400
S11305002B0560E0809110018BC0C530D10511F539
S113051061E0809116010E942B0560E08091140136
S11305200E942B0561E080910C010E942B0561E083
S113053080910A010E942B0561E0809110010E94C4
S11305402B0561E0809112010E942B0560E08091EF
S11305500E0166C0C630D10511F561E08091160127
S11305600E942B0561E080910C010E942B0561E043
S113057080910A010E942B0561E0809110010E9484
S11305802B0561E0809112010E942B0561E08091AE
S11305900E010E942B0560E08091140141C0C73018
S11305A0D10511F461E02ACFC830D105B1F461E07E
S11305B0809116010E942B0561E0809114010E9434
S11305C02B0561E0809112010E942B0561E080916E
S11305D010010E942B0561E017C0299719F561E00D
S11305E0809116010E942B0561E0809114010E9404
S11305F02B0561E0809112010E942B0561E080913E
S113060010010E942B0560E080910E010E942B05D1
S113061061E080910C010E942B0561E080910A0148
S11306200E942B0561E080913101DF91CF910C9400
S11306302B0564E070E080912401909125010E94D3
S113064096016091000170910101072E000C880B46
S1130650990B0E944F0463E070E080912201909115
S113066023010E9496016091000170910101072EFF
S1130670000C880B990B0E944F0462E070E080919B
S11306802001909121010E949601609100017091D6
S11306900101072E000C880B990B0E944F0461E0A6
S11306A070E080911E0190911F010E94960160915B
S11306B0000170910101072E000C880B990B0C941A
S11306C04F0408950E948B040E9461030E9421013B
S11306D0C0E0D0E00E9419032097E1F30E940000DB
S11306E0F9CF08958230E8F4E82FF0E0EE0FFF1F11
S11306F0E65EFE4F71836083813041F08091690032
S11307008C7F482B40936900E89A08958091690092
S1130710837F440F551F440F551F482B4093690096
S1130720E99A08951F920F920FB60F9211242F93F6
S11307303F934F935F936F937F938F939F93AF9365
S1130740BF93EF93FF93E0911A01F0911B01099578
S1130750FF91EF91BF91AF919F918F917F916F9195
S11307605F914F913F912F910F900FBE0F901F906B
S113077018951F920F920FB60F9211242F933F9347
S11307804F935F936F937F938F939F93AF93BF9395
S1130790EF93FF93E0911C01F0911D010995FF91E6
S11307A0EF91BF91AF919F918F917F916F915F91E5
S11307B04F913F912F910F900FBE0F901F9018955E
S11307C01F920F920FB60F9211242F933F938F9382
S11307D09F93AF93BF938091360190913701A0917D
S11307E03801B09139013091350123E0230F2D37C1
S11307F020F40196A11DB11D05C026E8230F029621
S1130800A11DB11D209335018093360190933701CA
S1130810A0933801B093390180913A0190913B0142
S1130820A0913C01B0913D010196A11DB11D8093A1
S11308303A0190933B01A0933C01B0933D01BF91D9
S1130840AF919F918F913F912F910F900FBE0F9079
S11308501F9018953FB7F89480913A0190913B010D
S1130860A0913C01B0913D0126B5A89B05C02F3F46
S113087019F00196A11DB11D3FBFBA2FA92F982FC2
S11308808827820F911DA11DB11DBC01CD0142E03D
S1130890660F771F881F991F4A95D1F708958F9285
S11308A09F92AF92BF92CF92DF92EF92FF926B0131
S11308B07C010E942A044B015C01C114D104E104AF
S11308C0F10401F10E945A050E942A04DC01CB01C3
S11308D088199909AA09BB09883E9340A105B10565
S11308E060F321E0C21AD108E108F10888EE880E0D
S11308F083E0981EA11CB11CC114D104E104F104CD
S113090019F7DBCFFF90EF90DF90CF90BF90AF90BF
S11309109F908F900895789484B5826084BD84B547
S1130920816084BD85B5826085BD85B5816085BDE6
S1130930EEE6F0E0808181608083E1E8F0E01082FF
S1130940808182608083808181608083E0E8F0E040
S1130950808181608083E1EBF0E08081846080832A
S1130960E0EBF0E0808181608083EAE7F0E0808161
S113097084608083808182608083808181608083C1
S11309808081806880831092C1000895833081F053
S113099028F4813099F08230A1F008958730A9F0CD
S11309A08830B9F08430D1F4809180008F7D03C009
S11309B0809180008F7780938000089584B58F772D
S11309C002C084B58F7D84BD08958091B0008F7777
S11309D003C08091B0008F7D8093B0000895CF93C1
S11309E0DF9390E0FC01E458FF4F2491FC01E057B1
S11309F0FF4F8491882361F190E0880F991FFC01D7
S1130A00E255FF4FC591D491FC01EC55FF4FA591E0
S1130A10B491611109C09FB7F8948881209582230D
S1130A208883EC912E230BC0623061F49FB7F89455
S1130A308881322F309583238883EC912E2B2C933D
S1130A409FBF06C08FB7F894E8812E2B28838FBFF1
S1130A50DF91CF9108951F93CF93DF93282F30E038
S1130A60F901E859FF4F8491F901E458FF4FD491FB
S1130A70F901E057FF4FC491CC23C1F0162F811127
S1130A800E94C604EC2FF0E0EE0FFF1FEC55FF4F61
S1130A90A591B4919FB7F894111104C08C91D0958D
S1130AA0D82302C0EC91DE2BDC939FBFDF91CF9162
S1130AB01F910895089597FB072E16F4009407D00C
S1130AC077FD09D00E946F0507FC05D03EF4909590
S1130AD081959F4F0895709561957F4F0895AA1B46
S1130AE0BB1B51E107C0AA1FBB1FA617B70710F015
S1130AF0A61BB70B881F991F5A95A9F78095909547
S10D0B00BC01CD010895F894FFCF65
S1130B0A05000D000C000B000A0003000400050098
S1110B1A0600070008000900020071037103C1
S9030000FC
