:100000000C9434000C943E000C943E000C943E0082
:100010000C943E000C943E000C943E000C943E0068
:100020000C943E000C943E000C943E000C943E0058
:100030000C943E000C943E000C943E000C943E0048
:100040000C943E000C943E000C943E000C943E0038
:100050000C943E000C943E000C943E000C943E0028
:100060000C943E000C943E0011241FBECFEFD8E04C
:10007000DEBFCDBF0E9440000C9486000C940000AF
:10008000E0E8F0E0808182688083E1E8F0E0808150
:100090008861808380818260808380E29EE4909387
:1000A000870080938600219AE8E8F0E08BEF93E0E8
:1000B000918380832FE332E44FE021503040404071
:1000C000E1F700C000008E529F4F813923E1920773
:1000D00079F73FE342E48FE0315040408040E1F760
:1000E00000C000008FEB92E1918380832FE332E424
:1000F0004FE0215030404040E1F700C00000825DF9
:100100009109893223E0920779F7D0CFF894FFCF95
:00000001FF
